:020000040800F2
:100000005007002029020008191B0008111B0008D6
:10001000151B000861040008792500080000000095
:10002000000000000000000000000000D91D0008D2
:1000300065040008000000001D1B0008DD1D00080D
:10004000430200084302000843020008430200087C
:10005000430200084302000843020008430200086C
:10006000430200084302000843020008430200085C
:10007000430200084302000843020008430200084C
:10008000430200084302000843020008430200083C
:10009000430200084302000843020008430200082C
:1000A000430200084302000843020008430200081C
:1000B000430200084302000843020008430200080C
:1000C00043020008430200084302000843020008FC
:1000D00043020008430200084302000843020008EC
:1000E00043020008430200084302000843020008DC
:1000F00043020008430200084302000843020008CC
:1001000043020008430200084302000843020008BB
:1001100043020008430200084302000843020008AB
:10012000430200084302000843020008430200089B
:10013000430200084302000843020008430200088B
:10014000430200084302000843020008430200087B
:10015000430200084302000843020008430200086B
:10016000430200084302000843020008430200085B
:100170004302000843020008430200080000000098
:10018000430200084302000800F002F800F03CF8C7
:100190000AA090E8000C82448344AAF10107DA45E2
:1001A00001D100F031F8AFF2090EBAE80F0013F0F8
:1001B000010F18BFFB1A43F001031847C8250000C0
:1001C000E8250000103A24BF78C878C1FAD8520751
:1001D00024BF30C830C144BF04680C6070470000C1
:1001E0000023002400250026103A28BF78C1FBD840
:1001F000520728BF30C148BF0B6070471FB502F0DF
:1002000085FA1FBD10B510BD00F0EFF81146FFF7DD
:10021000F5FF02F0B3F900F00DF903B4FFF7F2FFB8
:1002200003BC00F015F90000094880470948004761
:10023000FEE7FEE7FEE7FEE7FEE7FEE7FEE7FEE796
:10024000FEE7FEE704480549054A064B70470000F3
:10025000E11D00088901000850010020500700201E
:10026000500300205003002053EA020C00F0698084
:100270002DE9F04B4FF00006002B1FBFB3FA83F5BA
:1002800003FA05F424FA05F65E4012BF1643B2FAEB
:1002900082F502FA05F4C5F120051EBF22FA05FC1D
:1002A00044EA0C04203556EA044C4FEA144418BFC3
:1002B000641C4FF000084FF00009904271EB030CF2
:1002C00039D3002919BFB1FA81F701FA07F6B0FA5C
:1002D00080F700FA07F6C7F120071EBF20FA07FCD7
:1002E00046EA0C062037B6FBF4FCA7EB0507103FE7
:1002F00007F01F0BCBF120062CFA06F60CFA0BFBCD
:1003000044BFB3460026202FA4BF5E464FF0000B2B
:100310005BEA060C08BF4FF0010B19EB0B0948EB29
:100320000608ABFB027C06FB02CC0BFB03CCC01B1C
:1003300071EB0C01C1E70B46024641464846BDE859
:10034000F08B13B5084318BF4FF0FF300146AFF3F1
:100350000080BDE81C40704710B5431C02E010F857
:10036000011B71B18107FAD14FF0013202C88C1A1A
:100370008C4314EAC211F9D0C01A0A0603D0C01E79
:1003800010BDC01A10BD0A0401D0801E10BD0902A4
:10039000FCD0401E10BD4FF0000200B5134694463D
:1003A0009646203922BFA0E80C50A0E80C50B1F1CD
:1003B0002001BFF4F7AF090728BFA0E80C5048BFE1
:1003C0000CC05DF804EB890028BF40F8042B08BF7F
:1003D000704748BF20F8022B11F0804F18BF00F87B
:1003E000012B7047704770477047754600F02CF836
:1003F000AE4605006946534620F00700854618B012
:1004000020B5FFF71FFFBDE820404FF000064FF07A
:1004100000074FF000084FF0000BAC46ACE8C009F5
:10042000ACE8C009ACE8C009ACE8C00921F007019C
:100430008D46704710B50446AFF300802046BDE8F6
:100440001040FFF7EABE000000487047100000208F
:1004500001491820ABBEFEE72600020070470000ED
:10046000FEE7000070470000EFF3108072B600BF97
:10047000FEE70000B0B5044600F018F9054640F26A
:100480000000C2F200000078611C18BF044400BFE5
:1004900000F00CF9401BA042FAD3B0BD2DE9F04F9B
:1004A00086B041F60002C4F600020C6807239042B1
:1004B000049008BF0623002C009300F0F1800498FC
:1004C0004FF0000A00F138424FEAB22300980127AA
:1004D00000264FF00008062B38BF18460090039105
:1004E0000DE000BF0C6808F1010834FA07F006F1CE
:1004F000020607F101070AF1040A00F0D1807D1E0F
:10050000012000FA05F314EA0309EBD0D1F804C086
:100510000CF0030BABF10104022C1FD2DDF810E04C
:100520004FEA4800DEF808200290032000FA06F4A3
:10053000C868A243B0401043CEF80800DEF804209B
:10054000E0439A43019273468E46CCF30012019920
:10055000029CAA40114359601BE000BFBBF1030F8E
:1005600010D104994FF0030BCC6A24EA0303CCF3B7
:10057000C004AC402343CB620BFA06F3D8430B46CE
:1005800034462BE0032000FA06F3D843049B8E4642
:100590003446D968DEF808200140A2401143BBF17F
:1005A000020FD9601AD16FF0030101EA550103EB84
:1005B000010B0AF01C030F227146DBF820C002FA7F
:1005C00003FE0A692CEA0E0C9A4042EA0C02049BD4
:1005D000CBF82020D1F804C00CF0030B19681CF4F0
:1005E000403F01EA00010BFA04F040EA0100186004
:1005F00003993FF477AF41F26002C4F2020210683F
:1006000040F2004E40F0010010601068C4F2010E8C
:1006100000F001000590059825F003004FF6084C06
:100620007044CFF6FF7C50F80C400AF00C020F2308
:10063000934024EA0303009C04FA02F21A4340F8B0
:100640000C20DEF808004C6840EA090240F20C4C2D
:10065000E30258BF20EA0902CEF80820C4F2010CD8
:10066000DCF80000A30240EA090258BF20EA0902B0
:10067000CCF80020DEF80400A30340EA090258BFCA
:1006800020EA0902CEF80420DEF80000E30340EA85
:10069000090258BF20EA0902CEF8002022E700BF75
:1006A00006B000F000B830BCBDE8C08F40F24C107E
:1006B000C2F200000068704790F84120202A03D160
:1006C00090F84020012A01D102207047242280F8AE
:1006D00041200268136823F001031360136823F4B8
:1006E00080531360136819431160116841F00101D0
:1006F0001160202180F84110002180F84010084648
:100700007047000090F84120202A03D190F8402043
:10071000012A01D102207047242280F8412002687A
:10072000136823F001031360136823F4706343EA32
:1007300001211160116841F001011160202180F850
:100740004110002180F8401008467047002804BF7F
:100750000120704710B5044690F8410028B90020E8
:1007600084F84000204600F049F8242084F8410035
:1007700094E80910E2680168012A21F00101016092
:1007800023F070610161816821F40041816003D12F
:100790004CF40041816009E04CF40441022A81607C
:1007A00004D1416841F4006103E000BF416821F4D5
:1007B00000614160416804F1100C41F0007141F4A6
:1007C00000414160C16821F40041C1609CE80E1005
:1007D000114341EA0321C160216A41EA0C01016031
:1007E000016841F00101016000202021606484F86B
:1007F0004110206384F8420010BD000010B5A8B07D
:10080000044601A804308421FFF7C5FD206845F2A5
:100810000041C4F20001884202D028B010BD00BFE0
:100820004020019001A800F015F9002818BFFFF73B
:100830001BFE41F24C04C4F20204206823A940F0DC
:1008400002002060206800F0020023902398C0205E
:10085000239012202490012025900320269004202C
:10086000279040F20040C4F60000FFF717FEE06852
:1008700040F40010E060E06800F400100090009880
:1008800028B010BD40F2000040F24C11C2F200004E
:10089000C2F2000100780A68104408607047000046
:1008A00080B5032000F078F80F2000F009F8002848
:1008B0001CBF012080BD00F029F8002080BD000091
:1008C00070B540F20006C2F200063178E1B104468C
:1008D00040F20800C2F200004FF47A720068B2FBE6
:1008E000F1F1B0FBF1F001F02DF80F2C4FF0010504
:1008F00008D838B94FF0FF3021460022002500F01B
:100900001FF87460284670BD012070BD82B041F2AE
:100910005800C4F20200816841F0010181608168E1
:1009200001F0010101910199016841F080510160DC
:10093000006800F080500090009802B070470000FE
:1009400010B54EF60C5CCEF2000CDCF80030C3F3B0
:10095000022E8EF00704042C28BF0424BEF10303EA
:100960004FF0FF3E0EFA04F438BF0023A143994034
:100970000EFA03F39A43114300F00F02043A624463
:1009800009010C3200F16043B0F1FF3FC8BF03F52D
:100990006442117010BD00004EF60C51CEF2000101
:1009A0000A684FF6FF031A4060F30A2242F08060A3
:1009B00040F0FD700860704747F20001C4F200018A
:1009C0000A68B0F5007F02F4C06031D1B0F5007F55
:1009D0002CD00868012262F34A20086040F2080027
:1009E000C2F200000068322250434DF68362C4F226
:1009F0001B32A0FB0202900C4A69520511D5421C21
:100A00000FD04A6952050CD558B14A69520508D52C
:100A1000012806D04A69520503D50228A0F1040036
:100A2000EAD14869400544BF032070470020704761
:100A3000B0F5806FFAD00868022262F34A2008609D
:100A40000020704747F20000C4F20000006800F484
:100A5000C06070472DE9F04782B00446407841F20B
:100A600088070007C4F2020730D5606E4FEAB05124
:100A700003290BD8DFE801F002101C25201D0021FE
:100A800001F04EF8064670B91AE000BF0126607802
:100A9000C0060BD51EE000BF04F12000002101F0CC
:100AA000F7F8064660B16078C00613D4B2464EE04F
:100AB00057F87C1C41F4803147F87C1C01E000BFF2
:100AC000606E396821F44001084338600026607880
:100AD000C006EBD5A06E4FEA306003280AD8B246B4
:100AE000DFE800F002102216201D002101F018F8A6
:100AF0000DE000BF4FF0010A4FF00108A078800719
:100B00000DD528E004F12000002101F0C1F8824653
:100B1000BAF1000FD04612D0A07880071BD4C2468D
:100B20002168C80768D088E057F87C0CB24640F4CA
:100B3000803047F87C0CBAF1000FD046ECD1386811
:100B4000A16E20F0407008434FF0000A3860B046B4
:100B5000A0788007E3D557F8300C10F080590BD1FE
:100B600057F8300C40F0805047F8300C57F8300CF4
:100B700000F080500190019847F20005C4F2000592
:100B8000286840F480702860FFF790FD064600BF9B
:100B90002868C00508D4FFF789FD801B0228F7D913
:100BA0004FF0030A22E000BFBAF1000F1ED1B8686F
:100BB00010F4407012D0D4F8841088420BD0B8687A
:100BC000B96820F4407041F48031B960B96821F40B
:100BD0008031B960B860C00740F01C81B868D4F8B3
:100BE000841020F440700843C246B860B9F1000F89
:100BF0001AD02168C80720D1880726D448072CD4EA
:100C0000080732D4C80638D488063ED4880544D4B0
:100C100048054AD4480650D4080656D4C8055CD4C2
:100C2000880462D473E000BF57F8300C20F0805085
:100C300047F8300C2168C807DED03868A26B20F076
:100C40000300104338608807D8D53868E26B20F07D
:100C50000C00104338604807D2D53868226C20F069
:100C60003000104338600807CCD53868626C20F03B
:100C7000C00010433860C806C6D53868A26C20F49E
:100C80004070104338608806C0D53868E26C20F4A4
:100C90004060104338608805BAD53868E26D20F4AA
:100CA0004020104338604805B4D53868226E20F4DF
:100CB0004010104338604806AED53868226D20F4E5
:100CC0004050104338600806A8D53868626D20F49B
:100CD000404010433860C805A2D53868A26D20F4A2
:100CE000403010433860880411D53A68E06E22F035
:100CF00040620243B0F1806F3A601DD0B0F1006FE6
:100D000005D157F87C0C40F4801047F87C0C0803A0
:100D100026D53A68206F22F040620243B0F1806F1E
:100D20003A6015D0B0F1006F1AD157F87C0C40F43E
:100D3000801047F87C0C13E0201D012100F0F0FE2C
:100D40002168002818BF82460803E2D408E000BFEB
:100D5000201D012100F0E4FE2168002818BF824612
:100D6000480311D53A68606F22F040620243B0F147
:100D7000806F3A601CD0B0F1006F05D157F87C0C41
:100D800040F4801047F87C0C480425D53968A06FE2
:100D900021F040510143B0F1005F396014D0B0F14F
:100DA000805F19D1201D022100F0BAFE11E000BFC2
:100DB000201D012100F0B4FE2168002818BF8246E2
:100DC0004804E3D408E000BF04F12000022100F051
:100DD0005FFF002818BF82462068010406D4C003C4
:100DE0000CD4504602B0BDE8F08700BF3968E26F0E
:100DF00021F0804111433960C003F2D53868D4F83E
:100E0000801020F0004008433860504602B0BDE832
:100E1000F08700BFFFF74AFC064641F288354FF0E5
:100E2000030A00BFB86880073FF5D8AEFFF73EFC65
:100E3000801BA842F6D9D9E62DE9F04381B00028FD
:100E40006BD042F20008C4F202080446D8F8000051
:100E50000D4600F0070088420CD2D8F8000020F0C0
:100E600007002843C8F80000D8F8000000F0070089
:100E7000A84252D1206841F2080910F00201C4F2E0
:100E800002090DD0A268D9F8003003F0F0039A42AD
:100E900006D9D9F8003023F0F0031A43C9F800202E
:100EA000C2072DD169B1A168D9F8002002F0F00283
:100EB000914206D2D9F8002022F0F0021143C9F87D
:100EC0000010D8F8001001F00701A9420CD9D8F899
:100ED000001021F007012943C8F80010D8F80010CD
:100EE00001F00701A94218D141071BD4000723D400
:100EF000D9F80000D9F8041010F00C002CD131E022
:100F0000606800285ED0022800F07E80032840F050
:100F1000818059F8081C890158D4012001B0BDE82E
:100F2000F08300BFD9F80010E26821F4E0611143BA
:100F3000C9F800100007DBD5D9F80000216920F4BA
:100F4000605040EAC100C9F80000D9F80000D9F8A3
:100F5000041010F00C0005D00C2829D101F0030179
:100F6000012925D159F8081C090703D4D9F88C1098
:100F7000090A02E059F8081C090942F2407201F01E
:100F80000F01C0F6000252F8211000280A4618BFCF
:100F900000220C2871D1D9F8040000F003000228C7
:100FA00046D0032804BF41F20021C0F27A0143E099
:100FB000042857D008285BD141F20022C0F27A02FF
:100FC0005BE000BF59F8081C8907A6D5D9F80010C6
:100FD00021F003010843C9F80000FFF767FB06464C
:100FE00041F28837D9F80000616800F00C00B0EBDE
:100FF000810F15D0FFF75AFB801BB842F2D90320AE
:1010000001B0BDE8F08300BF59F8081C89037FF5E3
:1010100084AFDBE759F8081C49057FF57EAFD5E7BB
:10102000206800F0020100297FF43DAF49E700BFCE
:1010300042F20041C0F2F401D9F80400D9F80420CA
:10104000C0F30210C2F306225143D9F80420013044
:10105000B1FBF0F0C2F34161022202EB4101B0FBAF
:10106000F1F20AE042F20042C0F2F40205E000BFF1
:10107000002200210C283FF48EAFD9F8000042F284
:101080002671C0F30310C0F60001085C00F01F00D9
:1010900022FA00F140F20400C2F2000040F208021D
:1010A0000068C2F20002116001B0BDE8F043FFF732
:1010B00007BC000040F2080041F20801C2F2000043
:1010C000C4F202010068096842F23672C1F30221DB
:1010D000C0F60002515C01F01F01C84070470000DB
:1010E00040F2080041F20801C2F20000C4F202011D
:1010F0000068096842F23672C1F3C221C0F60002EC
:10110000515C01F01F01C8407047000041F20C0122
:10111000C4F2020151F8040C10F00C02086805D06A
:101120000C2A29D100F00300012825D151F80C0C1C
:10113000000703D4D1F88800000A02E051F80C0C33
:10114000000942F2407300F00F00C0F6000353F8AC
:101150002030002A184618BF00200C2A18BF7047FC
:10116000086800F00300022810D0032804BF41F2F1
:101170000023C0F27A030DE0042A1FD0082A23D1ED
:1011800041F20020C0F27A00704700BF42F20043F3
:10119000C0F2F40308680A68C0F30210C2F3062222
:1011A000096801305A43B2FBF0F0C1F341610222F9
:1011B00002EB4101B0FBF1F0704700BF42F200408A
:1011C000C0F2F400704700BF00200023C5E7000014
:1011D0002DE9F04383B0002800F0068341F20006B9
:1011E0000446C4F20206B068F168227800F00C09E7
:1011F000D00601F003081DD42078C00700F08180DC
:10120000B9F1080F76D0B9F10C0F08BFB8F1030F90
:1012100070D06068B0F5803F07D0B0F5A02F40F0E7
:101220001982306840F480203060306840F48030AB
:1012300030601AE2B9F1000F1ED0B9F10C0F08BFEF
:10124000B8F1010F18D0A1693068002900F0AE8113
:1012500040F001003060FFF729FA0546306880074A
:1012600000F1B681FFF722FA401B02284FF003007D
:10127000F4D903B0BDE8F0833068800703D5A069D6
:10128000002800F0B182256A3068000700F11E8155
:10129000D6F89400000900F0F000854200F21C81AD
:1012A0003068B9F1000F40F008003060306820F07D
:1012B000F00040EA050030607068E16920F47F408A
:1012C00040EA0120706040F07D82B06DC00000F106
:1012D0001982B06D40F08050B065B06D00F0805064
:1012E00002900298FFF7AEFBB16D21F08051B1651D
:1012F0000AE200BF3068800303D56068002800F070
:101300007382207880072DD5B9F1040F1CD0B9F174
:101310000C0F08BFB8F1020F16D0E1683068002941
:1013200000F0B28140F480703060FFF7BFF90546ED
:10133000306840050FD4FFF7B9F9401B02284FF081
:101340000300F5D995E700BF3068400503D5E06894
:10135000002800F049827068216920F0F85040EAC6
:1013600001607060207800075ED42078400771D457
:10137000A06A002800F0E282022840F0DF80F068D6
:10138000E16A00F003028A4240F0F080226B6FF0C5
:101390000F0300F0700103EB0212914240F0E6806F
:1013A000616B00F4FE42B2EB012F40F0DF80A16BD5
:1013B00000F40032073918BF01218A4240F0D6807C
:1013C000E26B0023CFF6E07303EB025200F4C0019E
:1013D0006FF31402914240F0C980216C4FF07E42BD
:1013E00002EB016100F0C06001F07E41884240F0F4
:1013F000BD803068800100F1A182306840F08070CB
:101400003060F06840F08070F060FFF74FF90446FC
:101410003068800100F19282FFF748F9001B022832
:101420004FF00300F4D924E76169D6F8940000294D
:101430006ED040F00100C6F89400FFF737F905467A
:10144000D6F89400800790D4FFF730F9401B0228AB
:10145000F6D9FBE0B06D10F0805808D1B06D40F0C7
:101460008050B065B06D00F080500090009847F259
:101470000007C4F200073868C00513D4386840F488
:1014800080703860FFF712F9054600BF3868C00564
:1014900008D4FFF70BF9401B02284FF00300F5D9E1
:1014A000E7E600BFA068012808D0052840F0B0801A
:1014B000D6F8900040F00400C6F89000D6F89000EE
:1014C00040F00100C6F89000B1E000BF306800F0C5
:1014D000F00085427FF6E4AEB06DC00000F18A8076
:1014E000B06D40F08050B065B06D00F0805001905C
:1014F0000198FFF7A7FAB16D21F08051B165B0F501
:10150000007F00F07D80802D40F2D0800320D8E065
:1015100020F00100C6F89400FFF7C8F8054600BFA8
:10152000D6F8940080077FF520AFFFF7BFF8401B87
:1015300002284FF00300F3D99BE600BFB9F10C0F6E
:1015400000F05281306820F080703060FFF7AEF814
:10155000044600BF3068800140F1E480FFF7A6F840
:10156000001B02284FF00300F4D982E6B9F10C0FFA
:1015700000F03A81306840015CBF30685FEAC0002B
:1015800000F13281306820F080703060FFF78EF813
:1015900005463068800140F18F81FFF787F8401BD6
:1015A00002284FF00300F4D963E600BF20F00100E9
:1015B0003060FFF77BF80546306880077FF51CAE8A
:1015C000FFF774F8401B02284FF00300F4D950E6EF
:1015D000306840F0080030603068D4E9072120F01E
:1015E000F00008433060706820F47F4040EA022039
:1015F000706001E6FFF726FAB0F5007F7FF483AF55
:10160000812D5DD30120A02D88BF022059E000BFAD
:10161000D6F89010002821F00101C6F89010D6F8F5
:10162000901021F00401C6F8901000F08780FFF7B9
:101630003DF8054641F28837D6F89000800700F162
:101640008F80FFF733F8401BB842F5D9032003B071
:10165000BDE8F0833168002821F4803131603168C1
:1016600021F48021316000F08580FFF71FF80546E6
:10167000306880033FF545AEFFF718F8401B64283B
:101680004FF00300F4D9F4E520F480703060FFF7E8
:101690000DF80546306840057FF564AEFFF706F8A3
:1016A000401B02284FF00300F4D9E2E5A5F17000D9
:1016B000B0FA80F04009802D08BF022001E000BF91
:1016C000002042F20001C4F202010A6822F007027F
:1016D00002440A60096801F00701814240F08480F9
:1016E000306840F0080030603068D4E9072120F00D
:1016F000F00008433060706820F47F4040EA022028
:1017000070605FE0FFF79EF9B0F5007F06D1812D94
:1017100040D30120A02D88BF022045E0802D3BD979
:10172000032041E0F0684FF6FC71CFF6EE6108400F
:10173000F060002003B0BDE8F08300BFFEF7B6FF05
:10174000054641F28837D6F89000800708D5FEF7A5
:10175000ADFF401BB8424FF00300F4D989E500BF4C
:10176000B8F1000F7FF404AEB06D20F08050B0658A
:10177000FEE500BFFEF79AFF0546306880037FF55F
:10178000C0ADFEF793FF401B64284FF00300F4D96F
:101790006FE500BF002007E0A5F17000B0FA80F00F
:1017A0004009802D08BF022042F20001C4F202016C
:1017B0000A6822F0070202440A60096801F0070182
:1017C000814211D1B068F16810F00C0005D00C28EE
:1017D0002AD101F00301012926D13168090707D474
:1017E000D6F89410090A05E0012003B0BDE8F083A3
:1017F0003168090942F2407201F00F01C0F600029F
:1018000052F8211000280A4618BF00220C2837D1B0
:10181000F06800F00300022810D0032804BF41F252
:101820000021C0F27A010DE004281FD0082823D13E
:1018300041F20022C0F27A0222E000BF42F20041EF
:10184000C0F2F401F068F268C0F30210C2F306229D
:101850005143F2680130B1FBF0F0C2F34161022262
:1018600002EB4101B0FBF1F20AE000BF42F200429C
:10187000C0F2F40204E000BF002200210C28C7D00F
:10188000B06842F22671C0F30310C0F60001085C94
:1018900000F01F0022FA00F140F20400C2F2000042
:1018A00040F208020068C2F200021160FFF708F877
:1018B00000287FF4DEAC9FE4F06848F28C01CFF69C
:1018C0009D1104F12C0700EA010C8ECFD4E90F54CE
:1018D0006FF00F0040F2000E00EB0210CFF6E07E3A
:1018E00041EA0C010EEB05554FF07E4208436FF3C1
:1018F000140502EB046240EA032002F07E420EF57A
:10190000F014284304EA473710433843F060306846
:1019100040F080703060F06840F08070F060FEF75A
:10192000C5FE04463068800108D4FEF7BFFE001BE8
:1019300002284FF00300F5D99BE400BF002003B05C
:10194000BDE8F083411E0020B0EB116F1CBF0120E9
:1019500070474EF21002CEF2000251604EF6235153
:10196000CEF20001F0230B700721906011607047E8
:1019700010B5C8B10446C06F28B9002084F87800BB
:10198000204600F025F82420E0672068616A02689C
:1019900022F00102026011B1204600F02BFA20462D
:1019A00000F050FB012801D1012010BD21684868DA
:1019B00020F490404860886820F02A008860086819
:1019C00040F0010220460A60BDE8104000F086BAEF
:1019D00010B5A8B0044601A804308421FEF7DBFC52
:1019E000206844F60041C4F20001884202D028B0C9
:1019F00010BD00BF082401A80194FFF72BF80028B0
:101A000018BFFEF731FD41F24C00C4F20200C1687C
:101A100041F40021C160C16801F4002123912399A0
:101A2000016841F0010101600068022100F001003D
:101A3000239023980320249100212390CDE92510A1
:101A400023A94FF090402794FEF728FD28B010BD41
:101A50002DE9F04182B00446C06F20283ED10E46E9
:101A600000294FF0010049D01746002A46D04FF018
:101A7000000821201D46C4F88480E067FEF716FEAA
:101A8000A4F85070A4F85270A1680746B1F5805FC1
:101A90000FD12069002814BF3046B046064608E042
:101AA00016F8010B21680885B4F852000138A4F833
:101AB0005200B4F85200A8B12046802100223B46D3
:101AC000009500F0F3FBE8B9002EE9D138F8020BDD
:101AD00021686FF35F2008850026E5E7022002B049
:101AE000BDE8F0812046402100223B46009500F0F1
:101AF000DDFB2021E167002818BF032002B0BDE80C
:101B0000F08100BF2020E067032002B0BDE8F08133
:101B1000FEE70000FEE70000FEE70000704700005F
:101B2000F0B581B041F20007C4F20207FA680D4631
:101B30009107044614D0F868216800F00300884239
:101B40004FF0010040F0A180002900F09E80F8686D
:101B50006168C0F302100130884232D134E000BF26
:101B6000206803280CD0022816D0012829D1396812
:101B7000012211F0020182EA510116D120E000BFDA
:101B80003968890310D43968012211F4802182EA6E
:101B900091410AD114E000BF3968012211F480613B
:101BA00082EA912101D10BE00021FA68636822F0FA
:101BB00073026FF00F0606EB031310431843F8602F
:101BC00011B1012001B0F0BD386820F080603860AC
:101BD000FEF76CFD064600BF3868000106D5FEF72B
:101BE00065FD801B0228F7D946E000BF012D0FD00C
:101BF00005BB386948F2FF01CFF6FD710840D4E912
:101C000002120023CFF6FE7303EA423220E000BF47
:101C100048F2FF013869CFF6FF112269002301F174
:101C2000B461CFF6E0730840A16803EB02526FF392
:101C300014020DE0386948F2FF016269CFF6FF1126
:101C40004FF07E430840A16803EB026202F07E423F
:101C500040EA012010433861386840F08060386005
:101C6000FEF724FD054600BF3868000108D4FEF7E2
:101C70001DFD401B0228F7D9032001B0F0BD00BFB5
:101C8000A069396908433861002001B0F0BD000047
:101C9000F0B581B041F20007C4F20207FA680D46C0
:101CA0009107044614D0F868216800F003008842C8
:101CB0004FF0010040F08D80002900F08A80F86824
:101CC0006168C0F302100130884219D136E000BFCC
:101CD0002068032818D002280AD0012810D13968BA
:101CE000012211F0020182EA510108D019E000BF7F
:101CF0003968012211F4806182EA912111D1E9B1A0
:101D0000012001B0F0BD00BF3968890308D43968EB
:101D1000012211F4802182EA9141F0D001E000BF5C
:101D20000021FA68636822F073026FF00F0606EB79
:101D3000031310431843F8600029E1D1386820F0FC
:101D400080503860FEF7B2FC064600BF386880005D
:101D500006D5FEF7ABFC801B0228F7D930E000BFA8
:101D600078696DB148F2FF012269CFF6FF114FF09B
:101D70007E430840A16803EB026202F07E420BE062
:101D800048F2FF01CFF6FD710840D4E902120023AA
:101D9000CFF6FE7303EA423240EA01201043786135
:101DA000386840F080503860FEF780FC054600BF80
:101DB0003868800008D4FEF779FC401B0228F7D968
:101DC000032001B0F0BD00BF606979690843786104
:101DD000002001B0F0BD000070470000FEF752BDCA
:101DE0004EF68850CEF20000016841F470010160A7
:101DF0007047000080B5416A0A070DD4CA0716D1A2
:101E00008A071FD44A0728D4CA0631D48A063AD48E
:101E10004A0658D542E000BF0268D0F834C0536883
:101E200023F4004343EA0C035360CA07E8D0026876
:101E3000D0F828C0536823F4003343EA0C035360FE
:101E40008A07DFD50268D0F82CC0536823F48033AA
:101E500043EA0C0353604A07D6D50268D0F830C075
:101E6000536823F4802343EA0C035360CA06CDD59C
:101E70000268D0F838C0936823F4805343EA0C0317
:101E800093608A06C4D50268D0F83CC0936823F4F6
:101E9000005343EA0C0393604A0614D50268D0F855
:101EA00040C05368BCF5801F23F4801343EA0C0341
:101EB000536008D1D2F804C0D0F844E02CF4C00339
:101EC00043EA0E035360090658BF80BD0168806C69
:101ED0004A6822F400221043486080BDB0B582B049
:101EE00004460020C4F88400FEF7E0FB21680546A4
:101EF0000A68120735D56FF07E4C20464FF400116A
:101F000000222B46CDF800C000F0D0F940B300BF4E
:101F1000206850E8000F216820F0800041E80002AE
:101F2000DAB1206850E8000F216820F0800041E815
:101F3000000292B1206850E8000F216820F0800074
:101F400041E800024AB1206850E8000F216820F003
:101F5000800041E80002002ADAD12020E0675FE03B
:101F600021680868400761D56FF07E4C20464FF429
:101F7000800100222B46CDF800C000F097F9002820
:101F800054D000BF206850E8000F216820F4907002
:101F900041E80002E2B1206850E8000F216820F417
:101FA000907041E800029AB1206850E8000F216863
:101FB00020F4907041E8000252B1206850E8000F10
:101FC000216820F4907041E80002002ADAD100BFB5
:101FD000206850E8020F216820F0010041E8020269
:101FE000DAB1206850E8020F216820F0010041E8D2
:101FF000020292B1206850E8020F216820F001002F
:1020000041E802024AB1206850E8020F216820F03E
:10201000010041E80202002ADAD12020C4F8800041
:102020000320002184F8781002B0B0BD2020E067C2
:10203000C4F88000002020666066002184F87810D3
:1020400002B0B0BDB0B505462A69D5E902130068F3
:102050000A436969D5F81CE01143026846F6F31497
:10206000CEF6FF7441EA0E0122401143016041683F
:1020700048F2000C21F4405119434160AA69C4F2AE
:10208000000C60451CBF296A0A438168102321F4B3
:1020900030611143816044F6FF71C4F2000188424F
:1020A00018DC44F20041C4F20001884228D044F612
:1020B0000001C4F2000188422AD044F60041C4F273
:1020C0000001884242D141F28801C4F2020109684C
:1020D0008B0933E045F20001C4F2000188421FD0B1
:1020E000604525D043F60001C4F2010188422DD19C
:1020F00041F28801C4F202010B6868A222E000BF2D
:1021000041F28801C4F2020109688B0816E000BFA1
:1021100041F28801C4F2020109680B090EE000BF18
:1021200041F28801C4F2020109680B0A06E000BF0F
:1021300041F28801C4F2020109688B0A42F270720E
:10214000C0F6000203F0030152F82130604542F26C
:102150000040C0F2F40015D0BEF5004F22D1082B8C
:102160004FF0010100F29580DFE803F00654609320
:10217000589393935E0000BFFEF79CFF002855D153
:102180004FE000BF082B4FF0010100F28280DFE832
:1021900003F0058023801B8080802100FEF78AFFEA
:1021A000D0B914E0082B4FF0010100F27280DFE893
:1021B00003F005535F70577070705D00FEF77AFF93
:1021C000002855D14FE000BFFEF7A0FF20B9002145
:1021D0005FE000BF4FF400406A6802EB42018842B2
:1021E0004FF0010155D31303984252D8010E00025B
:1021F00010EB520041F100010023FEF735F84FF6D5
:102200000052A0F54071C0F20F0291423BD3012170
:102210003FE000BFFEF764FF40B902E0FEF776FF43
:1022200020B9002135E000BF4FF4004069684A083A
:1022300002EB4000B0FBF1F04FF6EF72A0F110019D
:10224000914207D84FF6F0710140C0F342000844B4
:1022500019E000BF01211CE0FEF742FF40B902E097
:10226000FEF754FF20B9002113E000BF4FF40040F7
:1022700069684FF6EF7200EB5100B0FBF1F0A0F18E
:102280001001914204D82968C860002101E000BF14
:10229000012100220846AA66EA66B0BD01000000DE
:1022A0000400000002000000080000002DE9F041D9
:1022B000044600681546C2690E461140891BB1FAF2
:1022C00081F14909A94227D1DDF81880B8F1000F42
:1022D00026D018F1010129D1C1693140891BB1FA19
:1022E00081F14909A94217D1C1693140891BB1FA6D
:1022F00081F14909A9420FD1C1693140891BB1FA65
:1023000081F14909A94207D1C1693140891BB1FA5C
:1023100081F14909A942DFD00020BDE8F08100BF6A
:10232000FEF7C4F90320BDE8F08100BF1F4607E0B7
:10233000C0693040801BB0FA80F04009A842EBD160
:10234000FEF7B4F9C01B404500F28E80206801689A
:102350004907EDD5C169090700F18A80C1690905FE
:10236000E6D54FF40061016250E8000F216820F4C7
:10237000907041E80002C2B3206850E8000F216865
:1023800020F4907041E800027AB3206850E8000F12
:10239000216820F4907041E8000232B3206850E8D0
:1023A000000F216820F4907041E80002EAB1206833
:1023B000DAE700BF206850E8020F216820F0010032
:1023C00041E80202DAB1206850E8020F216820F0EB
:1023D000010041E8020292B1206850E8020F216832
:1023E00020F0010041E802024AB1206850E8020FE3
:1023F000216820F0010041E80202002ADAD1206EB3
:10240000012824D1206850E8000F216820F0100036
:1024100041E80002DAB1206850E8000F216820F09E
:10242000100041E8000292B1206850E8000F2168D6
:1024300020F0100041E800024AB1206850E8000F87
:10244000216820F0100041E80002002ADAD12020A3
:102450000021C4F880002166A166C4F8840003202E
:1024600084F87810BDE8F0810320BDE8F08100BF5A
:102470000821016250E8000F216820F4907041E8C3
:102480000002C2B3206850E8000F216820F4907069
:1024900041E800027AB3206850E8000F216820F478
:1024A000907041E8000232B3206850E8000F2168C4
:1024B00020F4907041E80002EAB12068DAE700BF3A
:1024C000206850E8020F216820F0010041E8020274
:1024D000DAB1206850E8020F216820F0010041E8DD
:1024E000020292B1206850E8020F216820F001003A
:1024F00041E802024AB1206850E8020F216820F04A
:10250000010041E80202002ADAD1206E012824D11C
:10251000206850E8000F216820F0100041E8000218
:10252000DAB1206850E8000F216820F0100041E87F
:10253000000292B1206850E8000F216820F01000DE
:1025400041E800024AB1206850E8000F216820F0FD
:10255000100041E80002002ADAD12020C4F88000EF
:10256000002008212066A066C4F8841084F8780052
:102570000120BDE8F0810000FEE7000098B0FEF702
:102580008FF906A804304021FDF705FF4FF40070D5
:10259000FEF712FA20B1EFF3108072B6FEE700BF2B
:1025A0001020069001200C90602000240E9006A8B8
:1025B0000D941094FEF70CFE20B1EFF3108072B66C
:1025C000FEE700BF0F20CDE9010401A80021CDE9FD
:1025D00003440594FEF730FC20B1EFF3108072B68F
:1025E000FEE700BF41F24C00C4F20200016844F66D
:1025F000004441F0010101600168C4F2000401F0EF
:102600000101069106990168002341F00201016071
:10261000006804F5006100F002000690069840F2A0
:102620007000C2F2000040F61462012780E88E00BC
:10263000C0E90433C0E906330362FEF787F828B126
:10264000EFF3108072B600BFFEE700BF40F27000EB
:10265000C2F200000021FEF72FF828B1EFF310803E
:1026600072B600BFFEE700BF40F27000C2F2000089
:1026700000210025FEF746F820B1EFF3108072B676
:10268000FEE700BF40F2C400C2F200004FF4E131A7
:102690000C22C0E90041C0E90255C0E90452C0E97A
:1026A0000655C0E90855FFF763F928B1EFF310802C
:1026B00072B600BFFEE700BFFEF7F2F847F26727E9
:1026C00040F2C40542F280764FF06E08C6F26F57B2
:1026D00006ACC2F20005C0F6000600BF2046CDE9F8
:1026E0000678FDF739FE82B2284621464FF0FF33C7
:1026F000FFF7AEF92846314602224FF0FF33FFF7CD
:10270000A7F94FF47A70FDF7B5FEE7E7F1EE100A8E
:102710004FF6FF71C0F2C03120EA010040F0407076
:10272000E1EE100A70470000000000000000010206
:10273000030406070809000000000102030400006A
:10274000A0860100400D0300801A060000350C0031
:1027500040420F0080841E0000093D0000127A00F4
:102760000024F40000366E010048E801006CDC0231
:10277000000000000400000002000000080000004B
:102780000A0D0000A827000800000020100000002B
:10279000C4010008B827000810000020400700000E
:1027A000E00100080000000001000000100000002F
:0827B00000093D0000000000DB
:040000050800018965
:00000001FF
